:020000040800F2
:1000000000800120159F00086D0D00086F0D00088D
:10001000710D0008730D0008750D00080000000048
:10002000000000000000000000000000219A00080D
:10003000770D000800000000C19A0008259B000809
:10004000659F0008659F0008659F0008659F000880
:10005000659F0008659F0008659F0008950D0008D2
:10006000659F0008659F0008659F0008659F000860
:10007000659F0008659F0008659F0008659F000850
:10008000659F0008659F0008659F0008659F000840
:10009000659F0008659F0008659F0008659F000830
:1000A000659F0008659F0008659F0008659F000820
:1000B000790D0008A10D0008659F0008659F0008E4
:1000C000659F0008659F0008659F0008659F000800
:1000D000659F0008659F0008659F0008659F0008F0
:1000E000890D0008659F0008659F0008659F00084E
:1000F000659F0008659F0008659F0008659F0008D0
:10010000659F0008659F0008659F00084D0D000869
:10011000659F0008659F0008659F0008659F0008AF
:10012000659F0008659F0008659F0008659F00089F
:10013000659F0008659F0008659F0008659F00088F
:10014000659F0008659F0008659F0008659F00087F
:10015000659F0008659F0008659F0008659F00086F
:10016000659F0008659F0008659F0008659F00085F
:10017000659F0008659F0008000000000000000067
:08018000659F0008659F00085F
:1001900010B5054C237833B9044B13B10448AFF3C1
:1001A00000800123237010BD402B002000000000C0
:1001B00088B8000808B5034B1BB103490348AFF3E7
:1001C000008008BD00000000442B002088B8000813
:1001D000034613F8012B002AFBD1181A0138704787
:1001E00001F0FF01102A2BDB10F0070F08D010F8E8
:1001F000013B013A8B422DD010F0070F42B3F6D1EC
:10020000F0B441EA012141EA014122F007047FF004
:1002100000070023F0E80256083C85EA010586EA5B
:10022000010685FA47F5A3FA87F586FA47F6A5FA97
:1002300087F68EB9EED1F0BC01F0FF0102F00702A3
:1002400032B110F8013B013A83EA010313B1F8D14E
:100250000020704701387047002D06BF354603382F
:10026000073815F0010F07D1013015F4807F02BF68
:10027000013015F4C03F0130F0BC0138704700BFB9
:1002800070B54FF0FF0C4CF4E06C1CEA11541DBF2C
:100290001CEA135594EA0C0F95EA0C0F00F0DEF8F7
:1002A0002C4481EA030621EA4C5123EA4C5350EADC
:1002B000013518BF52EA033541F4801143F480132D
:1002C00038D0A0FB02CE4FF00005E1FB02E506F0BE
:1002D0000042E0FB03E54FF00006E1FB03569CF013
:1002E000000F18BF4EF0010EA4F1FF04B6F5007F19
:1002F00064F5407404D25FEA4E0E6D4146EB06068B
:1003000042EAC62141EA55514FEAC52040EA5E5013
:100310004FEACE2EB4F1FD0C88BFBCF5E06F1ED8BD
:10032000BEF1004F08BF5FEA500E50F1000041EBF4
:10033000045170BD06F0004646EA010140EA0200A1
:1003400081EA0301B4EB5C04C2BFD4EB0C0541EAC3
:10035000045170BD41F480114FF0000E013C00F3D8
:10036000AB8014F1360FDEBF002001F0004170BDFC
:10037000C4F10004203C35DA0C341BDC04F1140415
:10038000C4F1200500FA05F320FA04F001FA05F2A1
:1003900040EA020001F0004221F0004110EBD3706E
:1003A00021FA04F642EB06015EEA430E08BF20EA9A
:1003B000D37070BDC4F10C04C4F1200500FA04F33D
:1003C00020FA05F001FA04F240EA020001F00041CF
:1003D00010EBD37041F100015EEA430E08BF20EA42
:1003E000D37070BDC4F1200500FA05F24EEA020E8A
:1003F00020FA04F301FA05F243EA020321FA04F0B9
:1004000001F0004121FA04F220EA020000EBD3706F
:100410005EEA430E08BF20EAD37070BD94F0000F6F
:100420000FD101F00046400041EB010111F4801FA3
:1004300008BF013CF7D041EA060195F0000F18BF54
:10044000704703F00046520043EB030313F4801F90
:1004500008BF013DF7D043EA0603704794EA0C0F4A
:100460000CEA135518BF95EA0C0F0CD050EA410660
:1004700018BF52EA4306D1D181EA030101F00041DD
:100480004FF0000070BD50EA410606BF1046194605
:1004900052EA430619D094EA0C0F02D150EA013611
:1004A00013D195EA0C0F05D152EA03361CBF104652
:1004B00019460AD181EA030101F0004141F0FE41F1
:1004C00041F470014FF0000070BD41F0FE4141F475
:1004D000780170BD81F0004102E000BF83F000436D
:1004E00030B54FEA41044FEA430594EA050F08BFCF
:1004F00090EA020F1FBF54EA000C55EA020C7FEA93
:10050000645C7FEA655C00F0E2804FEA5454D4EB0F
:100510005555B8BF6D420CDD2C4480EA020281EAD9
:10052000030382EA000083EA010180EA020281EA11
:100530000303362D88BF30BD11F0004F4FEA013163
:100540004FF4801C4CEA113102D0404261EB410172
:1005500013F0004F4FEA03334CEA133302D05242F8
:1005600063EB430394EA050F00F0A780A4F10104B4
:10057000D5F1200E0DDB02FA0EFC22FA05F28018EE
:1005800041F1000103FA0EF2801843FA05F35941D4
:100590000EE0A5F120050EF1200E012A03FA0EFC53
:1005A00028BF4CF0020C43FA05F3C01851EBE3717D
:1005B00001F0004507D54FF0000EDCF1000C7EEB9A
:1005C00000006EEB0101B1F5801F1BD3B1F5001FD8
:1005D0000CD349085FEA30004FEA3C0C04F10104F7
:1005E0004FEA445212F5800F80F09A80BCF1004F20
:1005F00008BF5FEA500C50F1000041EB045141EAA2
:10060000050130BD5FEA4C0C404141EB0101013C6A
:1006100028BFB1F5801FE9D291F0000F04BF014659
:100620000020B1FA81F308BF2033A3F10B03B3F12B
:1006300020020CDA0C3208DD02F1140CC2F10C02BB
:1006400001FA0CF021FA02F10CE002F11402D8BF19
:10065000C2F1200C01FA02F120FA0CFCDCBF41EAE5
:100660000C019040E41AA2BF01EB0451294330BDB4
:100670006FEA04041F3C1CDA0C340EDC04F1140491
:10068000C4F1200220FA04F001FA02F340EA030068
:1006900021FA04F345EA030130BDC4F10C04C4F1AE
:1006A000200220FA02F001FA04F340EA030029468E
:1006B00030BD21FA04F0294630BD94F0000F83F4D8
:1006C000801306BF81F480110134013D4EE77FEABB
:1006D000645C18BF7FEA655C29D094EA050F08BF07
:1006E00090EA020F05D054EA000C04BF19461046E8
:1006F00030BD91EA030F1EBF0021002030BD5FEA2C
:10070000545C05D14000494128BF41F0004130BD53
:1007100014F580043CBF01F5801130BD01F00045A7
:1007200045F0FE4141F470014FF0000030BD7FEA1A
:10073000645C1ABF194610467FEA655C1CBF0B4615
:10074000024650EA013406BF52EA033591EA030F2C
:1007500041F4002130BD00BF90F0000F04BF002124
:10076000704730B54FF4806404F132044FF0000557
:100770004FF0000150E700BF90F0000F04BF0021D0
:10078000704730B54FF4806404F1320410F0004536
:1007900048BF40424FF000013EE700BF42004FEA31
:1007A000E2014FEA31014FEA02701FBF12F07F43AE
:1007B00093F07F4F81F06051704732F07F4208BF65
:1007C000704793F07F4F04BF41F40021704730B56C
:1007D0004FF4607401F0004521F000411CE700BFB8
:1007E00050EA010208BF704730B54FF000050AE03B
:1007F00050EA010208BF704730B511F0004502D53C
:10080000404261EB41014FF4806404F132045FEA3D
:10081000915C3FF4D8AE4FF003025FEADC0C18BFE6
:1008200003325FEADC0C18BF033202EBDC02C2F1D8
:10083000200300FA03FC20FA02F001FA03FE40EA6A
:100840000E0021FA02F11444BDE600BF4FEA410256
:1008500012F5001215D211D56FF47873B3EB625212
:1008600012D94FEAC12343F0004343EA505311F039
:10087000004F23FA02F018BF404270474FF00000CB
:10088000704750EA013005D111F0004008BF6FF009
:10089000004070474FF00000704700BF53B94AB99D
:1008A000002908BF00281CBF4FF0FF314FF0FF3078
:1008B00000F06EB9ADF1080C6DE904CE00F006F859
:1008C000DDF804E0DDE9022304B070472DE9F047CC
:1008D000089D04468C46002B40F083808A421746D0
:1008E00047D9B2FA82F242B1C2F1200024FA00F0F4
:1008F0009140974040EA010C94404FEA1748230C7E
:10090000BCFBF8F61FFA87FE08FB16C143EA014359
:1009100006FB0EF1994209D9FB1806F1FF3080F071
:100920001981994240F21681023E3B445B1AA4B2FF
:10093000B3FBF8F008FB103344EA034400FB0EFE5F
:10094000A64509D93C1900F1FF3380F00581A64581
:1009500040F2028102383C4440EA0640A4EB0E0417
:1009600000261DB1D4400023C5E900433146BDE84F
:10097000F08702B9FFDEB2FA82F2002A50D1CB1B17
:100980004FEA174E1FFA87F80126B3FBFEFC210C35
:100990000EFB1C3341EA034108FB0CF38B4207D9E1
:1009A00079180CF1FF3002D28B4200F2E9808446C4
:1009B000C91AA3B2B1FBFEF00EFB101143EA0144C9
:1009C00008FB00F8A04507D93C1900F1FF3302D21B
:1009D000A04500F2D9801846A4EB080440EA0C4078
:1009E000BFE78B4209D9002D00F0B1800026C5E990
:1009F000000130463146BDE8F087B3FA83F6002E99
:100A00004AD18B4202D3824200F2B880841A61EB51
:100A1000030101208C46002DA8D0C5E9004CA5E7B4
:100A2000C2F1200320FA03F6974001FA02F04FEAE0
:100A3000174ED9403043030CB1FBFEF61FFA87F87E
:100A40000EFB161143EA014306FB08F1994204FA32
:100A500002F409D9FB1806F1FF3C80F08D80994221
:100A600040F28A80023E3B445B1A81B2B3FBFEF047
:100A70000EFB103341EA034100FB08F38B4207D918
:100A8000791800F1FF3C73D28B4271D90238394496
:100A9000CB1A40EA064678E7C6F1200C03FA06F4C2
:100AA00022FA0CF31C4320FA0CF701FA06F34FEA82
:100AB000144E21FA0CF11F433B0CB1FBFEF91FFA57
:100AC00084F80EFB191143EA014109FB08FA8A4533
:100AD00002FA06F200FA06F308D9611809F1FF30AC
:100AE00048D28A4546D9A9F102092144A1EB0A015D
:100AF000BFB2B1FBFEF00EFB101147EA014700FB4D
:100B000008F8B84507D9E71900F1FF312ED2B845EA
:100B10002CD90238274440EA0940A7EB0807A0FB7C
:100B200002894F45C64649461AD317D05DB1B3EB8B
:100B30000E0267EB010707FA0CFCF2404CEA0202D6
:100B4000F740C5E9002700263146BDE8F0872E466C
:100B500028460BE70646E9E61846FDE64345E5D29A
:100B6000B8EB020E69EB04010138DFE70846D2E773
:100B700060468DE78146B9E7664675E730464AE745
:100B8000ACF1020C394413E702383C4424E700BFBF
:100B9000704700BFF0B5AFB002F08BF901F030F84C
:100BA00000F068FA002005F0B1F80121002005F0FE
:100BB000DDF801F009FA514809F08CFB00F04EFC19
:100BC00000F0DCFC044641F2883002F093F9002C7E
:100BD000F6D101F00DF801F06BF901F069F801F0C0
:100BE000A9F801F0EDF801F007FA01F047FA01F079
:100BF00087FA01F0CBFA0021414802F091F8082170
:100C0000404802F08DF800213F4802F089F80121A8
:100C10006E2000F059FA01215A2000F071FA0121EA
:100C20005A2000F089FA08F0D3FB2B942C942D94D1
:100C3000364B2A932AA808F0ABFC354B1860259454
:100C40002694279428942994324B249324AA07218C
:100C5000082008F077FD304B186020252A462146F1
:100C60001CA809F0E9F92D4B1B934FF4FA67209764
:100C7000182621961BAA2146294808F0F1FB294B8A
:100C800018602A46214613A809F0D6F9264B12937C
:100C90001797189612AA2146244808F0E1FB244B26
:100CA00018602A4621460AA809F0C6F9214B099383
:100CB0004FF496630E930F9509AA21461E4808F03B
:100CC000CFFB1E4B18602A46214601A809F0B4F953
:100CD0001B4B009380230593102306936A462146FD
:100CE000184808F0BDFB184B186008214FF09040E1
:100CF00003F0FCFB08F08EFBFEE700BFA0B8000885
:100D0000C40701208407012014080120B4B800089A
:100D100008080120C4B8000858080120D0B800080D
:100D2000F917000880070120E0B800082119000821
:100D300010080120ECB80008D519000804080120AB
:100D4000FCB80008ED1700087C07012008B5024830
:100D500004F0D2FA08BD00BF140A012008B5002033
:100D600004F0F8FFC82002F0C5F8F8E77047FEE786
:100D7000FEE7FEE7FEE7704708B5024801F0FEFC1B
:100D800008BD00BFD009012008B54FF4005003F0A2
:100D9000B5FB08BD08B5022003F0B0FB08BD00009C
:100DA00008B5024801F0EAFC08BD00BFC8080120F0
:100DB00000B583B0094B1A6E42F001021A661B6E31
:100DC00003F001030193019B00220F216FF001004A
:100DD00003F0E4FB03B05DF804FB00BF0010024029
:100DE00010B58CB0044600230793089309930A9327
:100DF0000B9302683C4B9A4208D023683B4A9342CB
:100E000025D03B4A934248D00CB010BD03F170434B
:100E1000A3F5F833DA6C42F40052DA64DA6C02F4C7
:100E200000520192019ADA6C42F00402DA64DB6C3F
:100E300003F004030293029B032307930B230893FD
:100E40000023099307A92B4803F05EFAD5E72A4A45
:100E5000136801331360012B14D0284BDA6C42F075
:100E60000402DA64DB6C03F004030493049B0223A2
:100E700007930B2308930023099307A91D4803F048
:100E800043FAC1E71D4BDA6C42F40052DA64DB6CC2
:100E900003F400530393039BDFE7174A13680133FE
:100EA0001360012B14D0154BDA6C42F00402DA64A3
:100EB000DB6C03F004030693069B042307930B23C8
:100EC00008930023099307A90A4803F01DFA9BE73A
:100ED0000A4BDA6C42F40052DA64DB6C03F4005320
:100EE0000593059BDFE700BF00000450000104509C
:100EF00000020450000800485C2B00200010024053
:100F000084B00368164A934208D0164A934210D020
:100F10000268154B9A4217D004B07047134B9A6D74
:100F200042F002029A659B6D03F002030193019B5C
:100F3000EEE70E4B1A6E42F480321A661B6E03F413
:100F400080330293029BE3E703F54C431A6E42F4AD
:100F500000321A661B6E03F400330393039BDBE736
:100F600000040040004001400044014000100240E5
:100F700010B588B0044600230393049305930693A9
:100F8000079302682B4B9A4208D023682A4A93425F
:100F90001ED02A4A934233D008B010BD03F5504307
:100FA000DA6C42F00102DA64DB6C03F001030093B7
:100FB000009B0423039302230493002305930693C9
:100FC0000E23079303A94FF0904003F09DF9DCE74F
:100FD0001B4BDA6C42F00802DA64DB6C03F00803A6
:100FE0000193019B4FF48043039302230493002257
:100FF00005920692079303A9124803F085F9CBE7FF
:101000000F4BDA6C42F00102DA64DB6C03F001038F
:101010000293029B4023039302230493002305932E
:1010200006930E23079303A94FF0904003F06CF949
:10103000B2E700BF0040014000080040004401400A
:1010400000100240000C00480268094B9A4200D090
:10105000704782B003F502339A6D42F004029A653C
:101060009B6D03F004030193019B02B0704700BF26
:101070000008004000B5A5B001230293002310939F
:1010800002A802F059FD60B9074B9A6D42F08052F8
:101090009A659B6D03F080530193019B25B05DF829
:1010A00004FBFFF75BFEEFE70010024010B4401AAC
:1010B000019CE41A04FB00F4511A94FBF1F4E018CB
:1010C0005DF8044B704700006E280CDC0B4B6E2261
:1010D0005A6311B9094B00225A63084A936943F0D5
:1010E000080393617047B0F5F07F04DB034B4FF4C6
:1010F000F0725A63EDE7014B5863EAE700400140A4
:101100005A280CDC0B4B5A22DA6311B9094B002226
:10111000DA63084A536D43F0080353657047B0F52E
:10112000D27F04DB034B4FF4D272DA63EDE7014B5D
:10113000D863EAE7000800405A280CDC0B4B5A221F
:101140005A6311B9094B00225A63084A936943F064
:10115000080393617047B0F5EB7F04DB034B4FF45A
:10116000EB725A63EDE7014B5863EAE70044014034
:1011700008B522B1012A05D0022A06D008BDFFF722
:10118000A3FFFBE7FFF7BCFFF8E7FFF7D5FFF5E7A5
:1011900010B5044604F040FD0521204604F048FA4D
:1011A000204604F0C9FA80B210BD000000B583B03B
:1011B000284B994209D0284B99421CD0274B994281
:1011C00031D0002003B05DF804FBB0F5207F05DBD3
:1011D000B0F52F6F04DD4FF42F6001E04FF4207065
:1011E0004FF4F07300936E234FF42F624FF420718D
:1011F000FFF75CFFE6E740F24D23984206DD40F63C
:101200003633984204DD40F6363001E040F24E209D
:101210004FF4D27300935A2340F6363240F24E21F7
:10122000FFF744FFCEE7B0F5077F06DB40F6133348
:10123000984204DD40F6133001E04FF407704FF49C
:10124000EB7300935A2340F613324FF40771FFF704
:101250002DFFB7E7C40701208407012014080120EF
:1012600010B5194C2046FEF7B3FF184B1A6881B22F
:10127000204606F09FF8002820DD144B1A684FF432
:10128000AF61134806F034F80446431E9BB240F2A7
:10129000765293420DD80E48002303550D4909F0AC
:1012A00064F808B100200AE00B49094809F05DF82C
:1012B00030B914F1040F05D0042000E0042010BD63
:1012C0000520FCE70620FAE7602B00200000002044
:1012D000D830002008B9000814B90008F8B506464F
:1012E0000F461F48FEF774FF10F0010434D185B299
:1012F0001C4B1A6829461A4806F05CF883B29D42D6
:1013000002D004242046F8BD164B1A6839463046F0
:1013100006F050F8B84201D00224F3E7114B1A68E6
:101320000021114805F0E4FF031E0EDD0E480022E7
:10133000C2540E4909F019F80028E3D10C490A48B3
:1013400009F013F850B10524DCE713F1040F01D0C4
:101350000224D7E70624D5E70224D3E70224D1E705
:10136000602B002000000020D830002008B90008C1
:1013700014B900082DE9F04106460D461746334CD6
:101380002046FEF725FFC82281B2204606F012F85B
:10139000002804DC4FF000084046BDE8F081C82278
:1013A0000021204605F0A4FF002843DD23780D2B03
:1013B00043D163780A2B43D1841E072C06D814F13D
:1013C000040F40D04FF00008E6E7013C24B11F4B6A
:1013D00023445B78152BF8D01D4B00221A55A4F13D
:1013E00008001C49184408F0C0FF88B1083CA4B2AA
:1013F0002C8054B14FF00008B44200D92E802A88C6
:101400001349384608F00AFEC6E74FF01608F3E71E
:10141000043C042210490E48204408F0F1FD20B994
:1014200000232B804FF00508B6E700232B804FF0F8
:101430000508B1E74FF01608AEE74FF00408ABE738
:101440004FF00408A8E74FF00608A5E7602B00203E
:10145000622B002008B900080CB9000808B506F096
:1014600027F808BDF8B507460D461646B1F5966F44
:1014700001D34FF49665358000221749174808F0CC
:1014800041FFFFF7EDFE10F0FF0403D0022C1FD048
:101490002046F8BD124B1A681249104808F032FF76
:1014A000FFF7DEFE10F0FF04F0D12A460E490B488C
:1014B00008F028FF29463846FFF710FF10F0FF0418
:1014C000E4D10A490A4808F050FF0028DED002247F
:1014D00000233380DCE700BF1CB90008602B00202C
:1014E0000000002024B900082CB9000834B9000815
:1014F000D8300020B0F5966F01D90220704770B542
:1015000004460E46154600221749184808F0FAFE10
:10151000FFF7A6FE10F0FF0000D070BD2246144970
:10152000124808F0EFFEFFF79BFE10F0FF0002D01C
:1015300000233380F1E7C8220E490C4808F0E2FE90
:10154000FFF78EFE10F0FF00E7D1084B0A4A1A6041
:101550002A4631462046FFF70DFF10F0FF00DCD091
:101560001628DAD11620D8E71CB90008602B002015
:101570003CB9000844B9000852300D0010B582B0E3
:10158000354808F0A7FE00223449354808F0BAFE75
:10159000FFF766FE10F0FF0003D070B1012002B02B
:1015A00010BD304808F096FE00222F492C4808F064
:1015B000A9FEFFF755FEC0B2EFE70B240094042309
:1015C000A822C021294808F0E9FD019404230093D2
:1015D000A823C0222649224808F094FEFFF740FEC7
:1015E00010F0FF0F01D00120D9E741F642712148E8
:1015F00008F0D4FD41F642721F49194808F082FEF6
:10160000FFF72EFE10F0FF0F01D00120C7E71B48A7
:1016100008F060FE1A4B1A681A49114808F072FE69
:10162000FFF71EFE10F0FF0F01D00120B7E71648AC
:1016300008F050FE0A4B154A92E8030018609980A2
:10164000FFF70EFE044610F0FF0F01D0E0B2A6E750
:101650000F4808F03FFEF9E74CB900081CB9000834
:10166000602B002078B900089CB90008A4B90008D4
:10167000E8B90008F8B9000828BA000830BA00082C
:101680000400002068BA00086CBA000898BA000884
:10169000A0BA000882B002AB03E906009DF8012061
:1016A0009DF8023043EA022303809DF803209DF851
:1016B000043043EA022343809DF805209DF806305C
:1016C00043EA0223838002B07047000010B5002473
:1016D0000CE0084B53F82410074B33F81400FFF7C5
:1016E00065FDE2B20121FFF743FD0134022CF0DD7C
:1016F00010BD00BFE0BA00085836002038B50546D6
:10170000002407E0054B53F82400FFF741FD25F8BE
:1017100014000134022CF5DD284638BDD4BA000887
:1017200070B584B00546204B93F83C300BB10023D4
:101730000CE06846FFF7E2FF009B2B60BDF8043029
:10174000AB802FE0002225F813200133022BF9DDB6
:10175000002612E03246144902A800F0CBFD04AB8B
:1017600003EB440333F8083C35F81420134425F800
:1017700014300134022CEDDD01360B4B93F83C3074
:10178000B34201DD0024F5E7002309E0064A92F8A0
:101790003C1035F8132092FBF1F225F813200133A9
:1017A000022BF3DD04B070BD0C00002038B50D4BEA
:1017B00093F83C4014B100231A460EE00A4B53F84C
:1017C0002000FFF7E5FC0CE003EB43010144054D6D
:1017D00035F811100A4492B201339C42F4DC92FBBA
:1017E000F4F038BD0C000020D4BA000808B5012080
:1017F00007F0ACFEFBE7000030B585B045E0022CF9
:1018000053D13E4B03221A7008214FF0904002F052
:101810006DFE10213A4802F069FE04AB13E90600A0
:101820003848FFF737FF42E0FF2B06D004AB13E93F
:1018300006003448FFF72EFF39E008214FF09040B2
:1018400002F054FE10212E4802F050FE2B4B0222D3
:101850001A70FFF73BFF2AE06846FFF761FF01239C
:10186000294A13700022022A30DC04A901EB42014C
:1018700031F8104C591C2448250AC55444540233ED
:101880000132F0E7C82007F061FE00231A4602A9E2
:101890001E48006808F004F8184B1C781C4B1D7893
:1018A00028B99DF80830012BA9D0032CBCD0012CFD
:1018B000E8D1002DD0D0144BFF221A70144B002217
:1018C0001A700E4B02221A70FFF700FF4FF40071DE
:1018D000104802F00BFE4FF0FF310F4B186807F075
:1018E000B5FE0028CED10D4A08210748FFF7BAFD02
:1018F000094B186807F0ECFEC4E700BF08000020A1
:1019000000040048503600205C08012058080120DF
:101910005E36002000080048080801206E360020CE
:1019200010B582B00DE04FF0FF3301E04FF0FF3310
:10193000002269462048006807F062FFC82007F0CF
:1019400005FE1E4B1B78012BF8D04FF400711C488C
:1019500002F0CCFD4FF0FF311A4B186807F076FE0D
:101960000028EBD1184A19490A20FFF7C3FD184C8B
:101970002070144B186807F0ABFE2378002BDDD1E4
:10198000114B5A788DF8002099788DF80110D9788C
:101990008DF8021019798DF8031059798DF804101B
:1019A00099798DF80510DB798DF80630FF2ABDD0C6
:1019B000012AB8D00023BBE7580801200800002006
:1019C0000008004808080120803600206C360020FE
:1019D0007C36002000B583B0114B01221A7008E05C
:1019E000104B93E80600104800F056FC0F2007F05B
:1019F000ADFD0C4C6846FFF781FE00982060BDF8F5
:101A00000430A380084B93F83C30002BE8D1064B00
:101A1000D4E9000118609980012283F83C20E5E7B1
:101A20008A360020583600200C00002010B5154BD7
:101A30001B78012B02D0022B0DD010BD0124124BBC
:101A40001C7008214FF0904002F050FD21460F48D5
:101A500002F04CFDF1E701240A4B1C7008214FF005
:101A6000904002F043FD2146084802F03FFD00246B
:101A7000022CE2DCE2B200210846FFF779FB0134D8
:101A8000F6E700BF080000205E3600200004004892
:101A900008B5064A13780133DBB21370044B1B7888
:101AA00003B908BDFFF7C2FFFBE700BF56360020B1
:101AB0008A360020000000002DE9F0470446036844
:101AC000B3F1804F05D022682D4B9A4204D0BDE877
:101AD000F08701F0FDF9F6E72A4B1B78032BF6D1CE
:101AE000002442E05FFA84F94846FFF75FFE824631
:101AF000254B33F814502D1ADFF8948048F8245001
:101B00002846FEF739FE1AA3D3E90023FEF7B8FBF7
:101B100006460F465046FEF72FFE32463B46FEF77E
:101B2000DFFC06460F46DFF86CA05AF82400281A9E
:101B3000FEF722FE10A3D3E90023FEF7A1FB024625
:101B40000B4630463946FEF7CBFCFEF77FFE0F4BC7
:101B500053F82410FFF72AFB4A460121FFF708FB40
:101B600058F824304AF824300134022CBADDAEE7AC
:101B70009A9999999999C93F7B14AE47E17AA43F04
:101B8000000400400800002050360020E0BA0008A1
:101B9000703600206036002008B5022805D0B0F568
:101BA000005F01D1FFF774FF08BD05F075FCFBE78E
:101BB00010B5044601F098F904440C4B1B78DBB2D5
:101BC000012B0AD8094B1878C0B201280AD001F0BD
:101BD0008BF9A042F1D3002003E0044B00221A70DD
:101BE000022010BD00221A70FBE700BF563600200D
:101BF00008B5024800F04AFB08BD00BF0C000020F9
:101C000000B5B9B02422002128A808F015FA002157
:101C1000229123912491259126918822684608F0EB
:101C20000BFA14232793012329932D9360222F92DB
:101C3000022231923293339328233493072335932E
:101C40003692379227A801F00BFA40BB0F2322935C
:101C5000032323930023249325932693042122A86E
:101C600001F016FDF0B94FF4804300934FF080531C
:101C70001E930123019302931823039307230493D4
:101C80000223059306934FF080730793684601F093
:101C900053FF50B902F07EF939B05DF804FBFFF74D
:101CA0005DF8D3E7FFF75AF8DDE7FFF757F8F1E7FC
:101CB00000B587B00023009301930293039304932C
:101CC00005931948194A026043608360C360036149
:101CD00004224261037643760122C26180F82030FB
:101CE0008362C36280F83030436380F8383003F099
:101CF0009FFB90B90E4B00930623019300230293A0
:101D00007F2203920422049205936946064803F059
:101D100017FD28B907B05DF804FBFFF71FF8E9E7E6
:101D2000FFF71CF8F6E700BF080901200000045087
:101D30000200300410B588B0002304930593069385
:101D400007930193029303931B481C4A02604BF6CE
:101D50008032426083606422C2600361836100F06C
:101D60003FFE00BB4FF48053049304A9124800F0D7
:101D700057FFD8B900230193039301A90E4801F03E
:101D800001F8B0B9002205211D2002F007FC1D203A
:101D900002F038FC084C204600F022FE204600F0FD
:101DA000D3FC08B010BDFEF7D9FFDBE7FEF7D6FF86
:101DB000E0E7FEF7D3FFE5E7C80801200004004094
:101DC00010B59AB00024169417941894199413948B
:101DD000149415940C940D940E940F9410941194E3
:101DE00012942C22214601A808F026F92E482F4BE8
:101DF000036040F28F134360846040F2E733C360B6
:101E000004614461846100F0EBFD00283AD14FF495
:101E10008053169316A9244800F002FF002834D1FD
:101E2000214800F0F7FD002832D1002313931593C9
:101E300013A91D4800F0A6FF00282CD160230C93A5
:101E40004FF4C8730D9300220E920F9210921192CC
:101E500012920CA9144800F03DFEF8B9002301933A
:101E600002930393049305934FF4005206920B934D
:101E700001A90D4800F0D2FF98B90B48FFF778F898
:101E80001AB010BDFEF76AFFC1E7FEF767FFC7E7AC
:101E9000FEF764FFC9E7FEF761FFCFE7FEF75EFFDD
:101EA000DCE7FEF75BFFE8E7C407012000400140E4
:101EB000F0B58BB000240594069407940894099417
:101EC0003E4BDA6C42F00402DA64DA6C02F004028F
:101ED0000192019ADA6C42F00102DA64DA6C02F0E3
:101EE00001020292029ADA6C42F00202DA64DA6CBF
:101EF00002F002020392039ADA6C42F00802DA64FA
:101F0000DB6C03F008030493049B224620214FF06E
:101F1000904002F0E6FA2A4E22464FF480413046C5
:101F200002F0DFFA274F22464FF40071384602F0E4
:101F3000D8FA20230593012506950794089405A94E
:101F40004FF0904002F0E0F944F21003059306953B
:101F50000794089405A9304602F0D6F94FF40073AF
:101F6000059306950794089405A9384602F0CCF924
:101F700022462946304602F0B4FA22461021304665
:101F800002F0AFFA224608214FF0904002F0A9FA81
:101F90001123059306950794089405A9304602F08D
:101FA000B3F90823059306950794089405A94FF003
:101FB000904002F0A9F90BB0F0BD00BF0010024044
:101FC000000400480008004808B50949094B0B60A7
:101FD0004FF4E1334B6000208860C86008610C2337
:101FE0004B618861C8610862486203F001FF08BD67
:101FF0008C3600200038014000B587B000230093E4
:10200000019302930393049305931948194A0260BC
:1020100043608360C36003610422426103764376B8
:102020000122C26180F820308362C36280F83030C0
:10203000436380F8383003F0FBF990B90E4B0093FE
:1020400006230193002302937F2203920422049229
:1020500005936946064803F073FB28B907B05DF89D
:1020600004FBFEF77BFEE9E7FEF778FEF6E700BF2C
:1020700064080120000104500400600800B587B026
:10208000002300930193029303930493059319484B
:10209000194A026043608360C360036104224261A5
:1020A000037643760122C26180F820308362C362E6
:1020B00080F83030436380F8383003F0B9F990B9D4
:1020C0000E4B009306230193002302937F22039279
:1020D0000422049205936946064803F031FB28B9AF
:1020E00007B05DF804FBFEF739FEE9E7FEF736FEC0
:1020F000F6E700BF6C090120000204500800900CB4
:1021000000B58BB0002307930893099300930193C4
:10211000029303930493059306931A481A4A0260A4
:1021200040F28F124260836040F2E732C260036186
:10213000836100F06FFCD8B900230793099307A9C6
:10214000104800F01FFEB0B9602300934FF4C8732D
:10215000019300230293049308226946094800F082
:10216000B9FC58B90748FEF703FF0BB05DF804FB54
:10217000FEF7F4FDE0E7FEF7F1FDE5E7FEF7EEFD23
:10218000F0E700BF840701200008004010B592B0BE
:1021900000240B940C940D940E940F9410941194AD
:1021A0002C222146684607F047FF2248224B036055
:1021B00040F28F134360846040F2E733C3600461F0
:1021C0004461846100F00CFC38BB1A4800F022FC2A
:1021D00030BB60230B934FF4C8730C9300220D9215
:1021E0000E920F92109211920BA9124800F072FCFD
:1021F000C8B90023009301930293039304934FF40F
:10220000005205920A9369460A4800F007FE68B931
:102210000848FEF7ADFE12B010BDFEF79FFDD4E7F3
:10222000FEF79CFDD5E7FEF799FDE2E7FEF796FD88
:10223000EEE700BF140801200044014000B583B060
:10224000019047F23053012201A9044804F020FA1A
:102250000028F6D1019803B05DF804FB8C3600200D
:1022600000B583B000238DF8073047F230530122C8
:102270000DF10701044804F076FA0028F5D19DF825
:10228000070003B05DF804FB8C360020002380F8C3
:102290003C3043648364704710B483B0034602A8A3
:1022A00000E9060093F83C20196C8A4219D08A4252
:1022B00002DA013283F83C205A6C501C90FBF1F298
:1022C00001FB12025A6402EB420203EB4201009846
:1022D00043F81200BDF804308B8003B05DF8044B66
:1022E0007047986C013090FBF1F401FB1400986486
:1022F000DDE7000038B505460C46002A0FDB096C07
:1023000091421ADD3ABB636C03EB430204EB4203D8
:1023100054F812202A609B88AB80284638BD1148AB
:1023200007F0D8FF636C03EB430304EB430254F85C
:1023300013302B609388AB80EFE70B4807F0CAFFA0
:10234000A36C03EB430304EB430254F813302B60FC
:102350009388AB80E1E7606C831AD5D5121A8B1A8B
:10236000D2E700BFECBA000814BB000800B589B082
:10237000014600221C2002F011F91C2002F042F953
:10238000154B9A6D42F001029A659B6D03F00103B3
:102390000193019B02A903A801F052FA01F02CFA63
:1023A0000E4BA3FB00239B0C013B0D484FF08042DA
:1023B000026040F2E732C260436000230361836041
:1023C00000F00EFB18B1012009B05DF804FB0448D1
:1023D00000F0BAF9F8E700BF0010024083DE1B43AB
:1023E000D00901200120704708B507F0BDFD162374
:1023F00003604FF0FF3008BD08B54FF0FF31FFF725
:10240000F3FFFEE710B50C46FFF72AFF207001200E
:1024100010BD70B50C4616460025B54205DA14F815
:10242000010BFFF70BFF0135F7E7304670BD0000E9
:1024300008B503460B4A126842B10A4A10680344C1
:102440006A46934206D8074A136008BD054A064902
:102450001160F2E707F088FD0C2303604FF0FF30B6
:10246000F3E700BF0C370020701101204FF0FF3060
:1024700070474FF400534B600020704701207047B5
:102480000020704730B4036A23F001030362036A3B
:102490004468826922F4803222F073020D682A4374
:1024A00023F002038D682B431C4DA8420FD005F585
:1024B0000065A8420BD005F54065A84207D005F598
:1024C0008065A84203D005F58065A84205D123F0B8
:1024D0000803CD682B4323F00403104DA8420FD00E
:1024E00005F50065A8420BD005F54065A84207D068
:1024F00005F58065A84203D005F58065A84205D1A1
:1025000024F440754C692C438D692C4344608261EE
:102510004A684263036230BC704700BF002C014030
:1025200030B4036A23F480730362036A4468C269A7
:1025300022F4803222F073020D682A4323F40073E0
:102540008D6843EA0523184DA84203D005F50065C0
:10255000A84206D123F40063CD6843EA052323F49F
:102560008063114DA8420FD005F50065A8420BD03D
:1025700005F54065A84207D005F58065A84203D05F
:1025800005F58065A84207D124F440544D6944EA1A
:1025900005148D6944EA05144460C2614A68C26347
:1025A000036230BC704700BF002C014030B4036AA6
:1025B00023F480530362036A4468C26922F0807284
:1025C00022F4E6420D6842EA052223F400538D68A6
:1025D00043EA05330F4DA8420FD005F50065A84228
:1025E0000BD005F54065A84207D005F58065A842E7
:1025F00003D005F58065A84204D124F480444D69D8
:1026000044EA85144460C2614A680264036230BCD3
:10261000704700BF002C014030B4036A23F48033BC
:102620000362036A4468426D22F4803222F0700231
:102630000D682A4323F400338D6843EA05430F4DA8
:10264000A8420FD005F50065A8420BD005F54065FE
:10265000A84207D005F58065A84203D005F580653E
:10266000A84204D124F480344D6944EA052444602E
:1026700042654A688265036230BC7047002C0140A5
:1026800030B4036A23F480130362036A4468426D22
:1026900022F0807222F4E0420D6842EA052223F41F
:1026A00000138D6843EA05530F4DA8420FD005F57E
:1026B0000065A8420BD005F54065A84207D005F596
:1026C0008065A84203D005F58065A84204D124F4B2
:1026D00080244D6944EA8524446042654A68C265A5
:1026E000036230BC704700BF002C014030B4036A65
:1026F000056A25F001050562846924F0F00444EAC6
:10270000021423F00A030B438461036230BC704758
:1027100030B4056A25F0100505628469036A24F463
:10272000704444EA023423F0A00343EA01138461B5
:10273000036230BC7047836823F070030B4343F09F
:1027400007038360704700000268D36843F0010309
:10275000D36002689168064B0B40062B06D0B3F598
:10276000803F03D0136843F00103136000207047DB
:1027700007000100704770477047704710B5044666
:1027800003681A6912F0020F11D0DA6812F0020F12
:102790000DD06FF002021A610123037703689B6971
:1027A00013F0030F79D0FFF7E6FF002323772368A8
:1027B0001A6912F0040F12D0DA6812F0040F0ED06A
:1027C0006FF004021A610223237723689B6913F4D4
:1027D000407F68D02046FFF7CEFF00232377236891
:1027E0001A6912F0080F12D0DA6812F0080F0ED032
:1027F0006FF008021A61042323772368DB6913F062
:10280000030F57D02046FFF7B6FF00232377236836
:102810001A6912F0100F12D0DA6812F0100F0ED0F1
:102820006FF010021A61082323772368DB6913F421
:10283000407F46D02046FFF79EFF00232377236882
:102840001A6912F0010F03D0DA6812F0010F3FD1BC
:1028500023681A6912F0800F03D0DA6812F0800F33
:102860003DD123681A6912F4807F03D0DA6812F030
:10287000800F3BD123681A6912F0400F03D0DA6849
:1028800012F0400F39D123681A6912F0200F03D0DB
:10289000DA6812F0200F37D110BDFFF76BFF20462A
:1028A000FFF76AFF81E72046FFF764FF2046FFF746
:1028B00063FF92E72046FFF75DFF2046FFF75CFFCE
:1028C000A3E72046FFF756FF2046FFF755FFB4E782
:1028D0006FF001021A612046FFF7EEF8B8E76FF0DB
:1028E00080021A61204600F0E2FABAE76FF48072C3
:1028F0001A61204600F0DCFABCE76FF040021A6172
:102900002046FFF73AFFBEE76FF020021A6120462B
:1029100000F0CCFAC0E700000368304A904212D0C1
:10292000B0F1804F0FD0A2F5943290420BD002F557
:102930008062904207D002F58062904203D002F597
:102940009432904203D123F070034A681343234A20
:1029500090421ED0B0F1804F1BD0A2F5943290422D
:1029600017D002F58062904213D002F58062904247
:102970000FD002F5943290420BD002F540629042A3
:1029800007D002F58062904203D002F58062904247
:1029900003D123F44073CA68134323F080034A69C8
:1029A000134303608B68C3620B6883620B4B9842CE
:1029B0000FD003F5006398420BD003F540639842B3
:1029C00007D003F58063984203D003F580639842F3
:1029D00001D10B690363012343617047002C01405F
:1029E000B0B110B5044690F83D3063B1022384F8CD
:1029F0003D30214651F8040BFFF78EFF012384F888
:102A00003D30002010BD80F83C30FEF779FAEDE74C
:102A100001207047B0B110B5044690F83D3063B165
:102A2000022384F83D30214651F8040BFFF774FF70
:102A3000012384F83D30002010BD80F83C30FEF7C3
:102A400003FBEDE70120704730B4036A23F0100365
:102A50000362036A4468826922F0807222F4E642CB
:102A60000D6842EA052223F020038D6843EA05132E
:102A7000174DA84203D005F50065A84206D123F002
:102A80008003CD6843EA051323F04003104DA842AC
:102A90000FD005F50065A8420BD005F54065A842AA
:102AA00007D005F58065A84203D005F58065A842EA
:102AB00007D124F440644D6944EA85048D6944EAF1
:102AC0008504446082614A688263036230BC704757
:102AD000002C014038B590F83C30012B00F092807A
:102AE00004460D46012380F83C30022380F83D3037
:102AF000142A1ED8DFE802F00B1D1D1D241D1D1D0C
:102B0000381D1D1D4B1D1D1D5F1D1D1D7200006804
:102B1000FFF7B8FC2268936943F0080393612268C9
:102B2000936923F0040393612268936929690B4335
:102B30009361012384F83D30002084F83C0038BDC7
:102B40000068FFF781FF2268936943F40063936193
:102B50002268936923F480639361226893692969E9
:102B600043EA01239361E4E70068FFF7D9FC226898
:102B7000D36943F00803D3612268D36923F00403C7
:102B8000D3612268D36929690B43D361D1E7006817
:102B9000FFF70CFD2268D36943F40063D361226818
:102BA000D36923F48063D3612268D369296943EA36
:102BB0000123D361BDE70068FFF72EFD2268536D46
:102BC00043F0080353652268536D23F004035365F3
:102BD0002268536D29690B435365AAE70068FFF724
:102BE0004FFD2268536D43F4006353652268536DB3
:102BF00023F4806353652268536D296943EA0123F6
:102C0000536596E702209AE710B4846824F47F4461
:102C100042EA03220A43224382605DF8044B704774
:102C200090F83C30012B64D010B50446012380F8A5
:102C30003C30022380F83D30026890682E4B034000
:102C400093600B68602B40D022D8402B47D00BD923
:102C5000502B0ED1CA6849682068FFF747FD502104
:102C60002068FFF768FD04E0202B0CD008D9302B3A
:102C700009D0012384F83D30002084F83C0010BDC9
:102C80000BB1102BF5D119462068FFF754FDF0E782
:102C9000702B0ED0B3F5005FEBD1CB684A68896822
:102CA0002068FFF7B1FF2268936843F48043936084
:102CB000DFE7CB684A6889682068FFF7A5FF2268CC
:102CC000936843F077039360D3E7CA684968206844
:102CD000FFF71EFD60212068FFF72DFDC9E7CA68D8
:102CE00049682068FFF702FD40212068FFF723FDB7
:102CF000BFE70220704700BF8800FEFF10B401F05C
:102D00001F01012303FA01F4036A23EA04030362A7
:102D1000036A02FA01F10B4303625DF8044B70474A
:102D200010B5044601220068FFF7E8FF2368134A44
:102D300093420FD002F5006293420BD002F540623D
:102D4000934207D002F58062934203D002F580627D
:102D5000934203D15A6C42F400425A64226891684B
:102D6000074B0B40062B06D0B3F5803F03D013680A
:102D700043F001031360002010BD00BF002C014090
:102D80000700010090F83C30012B42D030B4012301
:102D900080F83C30022380F83D3002685368956823
:102DA0001D4CA24203D004F50064A24203D123F4D7
:102DB00070034C68234323F070030C682343536073
:102DC0000368154A934216D0B3F1804F13D0A2F591
:102DD000943293420FD002F5806293420BD002F5F9
:102DE0008062934207D002F59432934203D002F5F9
:102DF0004062934204D125F080058A6815439D60A6
:102E0000012380F83D30002380F83C30184630BC68
:102E100070470220704700BF002C014090F83C3002
:102E2000012B3ED010B4012380F83C30CB6823F452
:102E300040738A68134323F480634A68134323F47E
:102E400000630A68134323F480530A69134323F48D
:102E500000534A69134323F480438A6A134323F4DB
:102E600070238A6943EA024302680F4CA24203D0EE
:102E700004F50064A2420CD123F470034C6A43EAC7
:102E8000045323F08073CC69234323F00073096A51
:102E90000B435364002380F83C3018465DF8044B24
:102EA00070470220704700BF002C014070477047F8
:102EB000704710B5032001F05FFB0F20FFF756FAB3
:102EC00010B10124204610BD0446FDF771FFF9E75B
:102ED000034A1368034909680B441360704700BF35
:102EE000100A012058000020014B1868704700BFED
:102EF000100A012038B50446FFF7F6FF0546B4F185
:102F0000FF3F02D0044B1B681C44FFF7EDFF401B42
:102F1000A042FAD338BD00BF5800002030B583B0BE
:102F20000446204B9B6D13F0805F0BD001F01CFB1F
:102F3000B0F5007F17D0802C1FD82DD0702C2DD04D
:102F400000211BE0174DAB6D43F08053AB65AB6DBB
:102F500003F080530193019B01F006FBAB6D23F05E
:102F60008053AB65E4E7802C03D9A02C03D9022160
:102F700004E0002102E0012100E003210A4A136875
:102F800023F007030B431360136803F007038B421E
:102F900006D1002003B030BD0221EFE70121EDE7AB
:102FA0000120F7E70010024000200240284A936801
:102FB000D26802F0030213F00C030AD00C2B06D0E7
:102FC000042B1FD0082B20D00020024610E0012A3D
:102FD000F6D11F4A126812F0080F0CD11C4AD2F821
:102FE0009420C2F303221B4951F8222043B1002050
:102FF0000C2B0DD07047164A1268C2F30312F2E789
:103000001046F5E714480022F2E714480022EFE7E3
:103010000F4BDB6803F00303022B16D0032B00D108
:103020000E4A0B4BD868C0F302100130D968C1F3C7
:10303000062102FB01F2B2FBF0F2D868C0F3416056
:1030400001304000B2FBF0F0D4E7034AE9E700BFEB
:1030500000100240ECBB00080024F40000127A00CB
:10306000002800F0FF82F0B583B00446AE4B9D68A7
:1030700005F00C05DE6806F00306036813F0100F78
:103080005AD0E5B10C2D18D0A369002B00F0BB80FD
:10309000A54A136843F001031360FFF725FF0746B5
:1030A000A14B1B6813F0020F40F09A80FFF71CFF42
:1030B000C01B0228F4D90320DFE2012EE4D19A4B91
:1030C0001B6813F0020F03D0A369002B00F0CC8221
:1030D000206A954B1B6813F0080F5BD0924B1B685E
:1030E00003F0F00398425CD88F4B1A6842F0080254
:1030F0001A601A6822F0F002216A0A431A605A68BC
:1031000022F47F42E16942EA01225A60002D60D038
:10311000FFF74CFF844B9B68C3F30313834AD35CD4
:1031200003F01F03D840824B1860824B1868FFF7EA
:103130001DF9002840F0A182236813F0010F00F070
:103140008180082D75D00C2D71D06368B3F5803F58
:1031500000F09780B3F5A02F00F09980724B1A68A9
:1031600022F480321A601A6822F480221A6063689E
:10317000002B00F09980FFF7B7FE07466A4B1B68EB
:1031800013F4003F5ED1FFF7AFFEC01B6428F5D9F2
:10319000032072E2644BD3F894301B0903F0F00370
:1031A000A0E7FFF7BBFE002840F060825E4B1A6884
:1031B00042F008021A601A6822F0F002216A0A43FB
:1031C0001A605A6822F47F42E16942EA01225A6099
:1031D0009EE7206AFFF7A2FE002899D001204CE26A
:1031E000514B1A6842F008021A601A6822F0F00285
:1031F000216A0A431A605A6822F47F42E16942EA6E
:1032000001225A6098E7484A136823F001031360CB
:10321000FFF76AFE0746444B1B6813F0020F8BD082
:10322000FFF762FEC01B0228F5D9032025E2032E1A
:103230008BD13D4B1B6813F4003F03D06368002B18
:1032400000F01682236813F0020F4FD0042D3CD0FB
:103250000C2D38D0E368002B77D0334A136843F441
:1032600080731360FFF740FE06462F4B1B6813F474
:10327000806F61D1FFF738FE801B0228F5D903204B
:10328000FBE1294A136843F4803313606FE703F1CD
:103290008043A3F53C331A6842F480221A601A680E
:1032A00042F480321A6062E7FFF71EFE07461E4BAB
:1032B0001B6813F4003FC5D0FFF716FEC01B64283F
:1032C000F5D90320D9E1022EC4D1174B1B6813F4A2
:1032D000806F03D0E368002B00F0CC81124A536862
:1032E00023F0F853216943EA01635360236813F024
:1032F000080F55D06369002B3BD00B4AD2F89430AD
:1033000043F00103C2F89430FFF7EEFD0646064B8A
:10331000D3F8943013F0020F42D1FFF7E5FD801B84
:103320000228F4D90320A8E100100240D4BB000811
:10333000940000205C000020B84A536823F0F85342
:10334000216943EA01635360D0E7B44A136823F468
:1033500080731360FFF7C8FD0646B04B1B6813F47B
:10336000806FC3D0FFF7C0FD801B0228F5D9032072
:1033700083E1AA4AD2F8943023F00103C2F89430D2
:10338000FFF7B2FD0646A54BD3F8943013F0020FB9
:1033900006D0FFF7A9FD801B0228F4D903206CE1B9
:1033A000236813F0040F7AD09C4B9B6D13F0805F61
:1033B00036D19A4B9A6D42F080529A659B6D03F01C
:1033C00080530193019B0126954B1B6813F4807F6A
:1033D00028D0A368012B39D0052B3FD08F4BD3F8D1
:1033E000902022F00102C3F89020D3F8902022F020
:1033F0000402C3F89020A368002B3DD0FFF774FDB2
:103400000746864BD3F8903013F0020F46D1FFF7F2
:103410006BFDC01B41F288339842F2D903202CE1A6
:103420000026D1E77E4A136843F480731360FFF7E8
:103430005BFD07467A4B1B6813F4807FC9D1FFF709
:1034400053FDC01B0228F5D9032016E1734AD2F8B8
:10345000903043F00103C2F89030CCE76F4BD3F8C3
:10346000902042F00402C3F89020D3F8902042F05C
:103470000102C3F89020BEE7FFF736FD0746674B11
:10348000D3F8903013F0020F08D0FFF72DFDC01BCA
:1034900041F288339842F2D90320EEE06EBBA36A72
:1034A000002B00F0E980022B2DD00C2D00F0EB80DA
:1034B0005A4B1A6822F080721A601B6813F0205F62
:1034C00004D1564AD36823F00303D360534AD36828
:1034D00023F0887323F48033D360FFF705FD04469F
:1034E0004E4B1B6813F0007F00F0BA80FFF7FCFC26
:1034F000001B0228F4D90320BFE0484A936D23F053
:1035000080539365CBE7454BDB6803F00301E26A28
:1035100091420FD00C2D00F0B280404B1B6813F08D
:10352000806F40F0AE803D4B1B6813F0805F2DD064
:103530000120A2E003F07002216B0139B2EB011F00
:10354000E8D103F4FE42616BB2EB012FE2D103F448
:103550000031A26B073A18BF01229142DAD103F47D
:10356000C001E26B5208013AB1EB425FD2D103F0E5
:10357000C063226C5208013AB3EB426FCAD1274BA9
:103580001B6813F0007F51D0002076E0234A1368B7
:1035900023F080731360FFF7A7FC05461F4B1B68E1
:1035A00013F0007F06D0FFF79FFC401B0228F5D9DF
:1035B000032062E0194AD3681A491940E36A206B74
:1035C000013843EA0013606B43EA0023E06B4008D4
:1035D000013843EA4053206C4008013843EA406315
:1035E000A06B000943EA40430B43D360136843F0E8
:1035F00080731360D36843F08073D360FFF774FC6B
:103600000446064B1B6813F0007F0DD1FFF76CFCDE
:10361000001B0228F5D903202FE000BF0010024054
:10362000007000408C809DF9002026E0174B1A683E
:1036300042F080721A60DA6842F08072DA60FFF756
:1036400053FC0446114B1B6813F0007F06D1FFF7B3
:103650004BFC031B022BF5D903200EE000200CE0ED
:1036600000200AE001207047012006E0012004E06C
:10367000012002E0012000E0002003B0F0BD0120A5
:10368000FBE70120F9E70120F7E700BF0010024047
:10369000002800F0988070B50C4605464E4B1B681C
:1036A00003F007038B420BD24B4A136823F0070346
:1036B0000B431360136803F007038B4240F08580CF
:1036C0002B6813F0010F39D06B68032B09D0022B44
:1036D00026D063BB414A126812F0020F06D10120C6
:1036E00070E03E4A126812F0007F70D03B498A6851
:1036F00022F0030213438B60FFF7F6FB0646374BBD
:103700009B6803F00C036A68B3EB820F16D0FFF7D7
:10371000EBFB801B41F288339842F0D9032051E043
:103720002E4A126812F4003FE0D101204AE02B4AF1
:10373000126812F4806FD9D1012043E02B6813F096
:10374000020F06D0254A936823F0F003A9680B43C3
:103750009360214B1B6803F00703A3420AD91E4A5A
:10376000136823F0070323431360136803F0070370
:10377000A3422ED12B6813F0040F06D0174A93688A
:1037800023F4E063E9680B4393602B6813F0080FA0
:1037900007D0124A936823F46053296943EAC103AE
:1037A0009360FFF703FC0D4B9B68C3F303130C4AB4
:1037B000D35C03F01F03D8400A4B18600A4B18680B
:1037C000FEF7D4FD70BD012070470120FAE701200B
:1037D000F8E70120F6E700BF002002400010024099
:1037E000D4BB0008940000205C000020014B186846
:1037F000704700BF9400002008B5FFF7F7FF054BA6
:103800009B68C3F30223044AD35C03F01F03D84030
:1038100008BD00BF00100240E4BB000808B5FFF778
:10382000E5FF054B9B68C3F3C223044AD35C03F056
:103830001F03D84008BD00BF00100240E4BB0008D1
:103840000F2303600B4B9A6802F0030242609A68F0
:1038500002F0F00282609A6802F4E062C2609B6843
:10386000DB0803F4E0630361034B1B6803F0070309
:103870000B6070470010024000200240F8B504467B
:103880000F46594BDB6813F0030F18D0564BDB681B
:1038900003F003030268934202D001252846F8BDD5
:1038A000002A00F09E80504BDB68C3F30213013303
:1038B0004268934201D00125F0E7002509E0036842
:1038C000022B57D0032B5CD0012B42D00125002DB9
:1038D000E4D1454A136823F080631360FFF704FBCB
:1038E0000646414B1B6813F0006F05D0FFF7FCFA4A
:1038F000831B022BF5D90325002DCFD1002F4ED1EC
:1039000039490B6923F41F3323F44073A068E2683C
:103910001209520442EA002213430B61324A13682F
:1039200043F080631360FFF7DFFA06462E4B1B68F7
:1039300013F0006F05D1FFF7D7FA831B022BF5D9DF
:103940000325002DAAD1284A1369A1690B431361ED
:10395000A4E7254A126812F0020F1ED02248C2685E
:1039600022F073026168013943EA01131343C36013
:103970000025ACE71C4A126812F4806FEED10125D5
:10398000A5E7194A126812F4003FE7D1164A1268F7
:1039900012F4802FE2D1012599E7012597E7012F45
:1039A0000FD01148026922F0C06222F4FE42A168E1
:1039B00063695B08013B5B0643EA01231343036130
:1039C000ACE70948026922F4C00222F4FE42A16871
:1039D00023695B08013B5B0543EA01231343036151
:1039E0009CE701255AE700BF00100240F8B50446E5
:1039F0000F46504BDB6813F0030F18D04D4BDB68BC
:103A000003F003030268934202D001252846F8BD63
:103A1000002A00F08C80474BDB68C3F302130133AC
:103A20004268934201D00125F0E7002509E00368D0
:103A3000022B57D0032B5CD0012B42D00125002D47
:103A4000E4D13C4A136823F080531360FFF74CFA2B
:103A50000646384B1B6813F0005F05D0FFF744FAA9
:103A6000831B022BF5D90325002DCFD1002F4ED17A
:103A700030494B6923F41F3323F44073A068E26894
:103A80001209520442EA002213434B61294A136887
:103A900043F080531360FFF727FA0646254B1B6857
:103AA00013F0005F05D1FFF71FFA831B022BF5D936
:103AB0000325002DAAD11F4A536961690B43536145
:103AC000A4E71C4A126812F0020F1ED01948C268FF
:103AD00022F073026168013943EA01131343C360A2
:103AE0000025ACE7134A126812F4806FEED101256D
:103AF000A5E7104A126812F4003FE7D10D4A126898
:103B000012F4802FE2D1012599E7012597E70948B2
:103B1000426922F0C06222F4FE42A16823695B0878
:103B2000013B5B0643EA012313434361AEE70125F2
:103B30006CE700BF001002402DE9F04182B004465E
:103B4000036813F4006F33D0436EB3F5000F1FD03A
:103B50000CD823B3B3F5800F05D100212030FFF737
:103B600045FF064620E001273E4623E0B3F5400F1F
:103B70000BD10026624AD2F8883023F44003616EEC
:103B80000B43C2F88830002714E001273E4611E0BD
:103B90005B4AD36843F48033D3600026EAE7002110
:103BA0000430FFF76BFE0646002EE3D0374601E0F7
:103BB00000273E46236813F4805F21D0A36EB3F143
:103BC000007F79D00ED8002B7CD0B3F1807F06D156
:103BD000002104F12000FFF709FF064605E0012758
:103BE0003E460DE0B3F1407F63D1002E70D1444AD0
:103BF000D2F8883023F04073A16E0B43C2F88830AE
:103C0000236813F4003F00F084803D4B9B6D13F05C
:103C1000805F5FD13A4B9A6D42F080529A659B6DFE
:103C200003F080530193019B4FF00108354A13685C
:103C300043F480731360FFF757F90546314B1B6857
:103C400013F4807F05D1FFF74FF9401B0228F5D907
:103C50000326002E58D12A4BD3F8903013F440732A
:103C600016D0D4F884209A4212D0254AD2F8903047
:103C700023F44073D2F8901041F48031C2F89010D0
:103C8000D2F8901021F48031C2F89010C2F8903030
:103C900013F0010F21D1002E40F03981184AD2F8DB
:103CA000903023F44073D4F884100B43C2F8903062
:103CB0002BE001273E46A3E7114AD36843F4803343
:103CC000D36092E70021201DFFF7D8FD06468CE760
:103CD000374695E74FF00008A8E7FFF705F90546D6
:103CE000074BD3F8903013F0020FD4D1FFF7FCF854
:103CF000401B41F288339842F2D90326CBE700BF3C
:103D000000100240007000403746B8F1000F40F04C
:103D10000081236813F0010F08D09D4AD2F8883043
:103D200023F00303A16B0B43C2F88830236813F020
:103D3000020F08D0964AD2F8883023F00C03E16BCA
:103D40000B43C2F88830236813F0040F08D0904A60
:103D5000D2F8883023F03003216C0B43C2F888304E
:103D6000236813F0080F08D0894AD2F8883023F06E
:103D7000C003616C0B43C2F88830236813F0100F46
:103D800008D0834AD2F8883023F44073A16C0B43E7
:103D9000C2F88830236813F0200F08D07C4AD2F88C
:103DA000883023F44063E16C0B43C2F88830236809
:103DB00013F4007F08D0764AD2F8883023F44023E9
:103DC000E16D0B43C2F88830236813F4806F08D08C
:103DD0006F4AD2F8883023F44013216E0B43C2F8A7
:103DE0008830236813F0400F08D0694AD2F8883031
:103DF00023F44053216D0B43C2F88830236813F03D
:103E0000800F08D0624AD2F8883023F44043616DB5
:103E10000B43C2F88830236813F4807F08D05C4AD3
:103E2000D2F8883023F44033A16D0B43C2F88830B8
:103E3000236813F4005F0FD0554AD2F8883023F07E
:103E40004063E16E0B43C2F88830E36EB3F1006F5C
:103E500065D0B3F1806F67D0236813F4002F0FD0C3
:103E60004B4AD2F8883023F04063216F0B43C2F8ED
:103E70008830236FB3F1006F5ED0B3F1806F60D0F4
:103E8000236813F4802F0FD0414AD2F8883023F0F2
:103E90004063616F0B43C2F88830636FB3F1006F0A
:103EA00057D0B3F1806F59D0236813F4804F0FD0EF
:103EB000374AD2F8883023F04053A16F0B43C2F841
:103EC0008830A36FB3F1805F50D0B3F1005F55D05D
:103ED000236813F4004F08D02D4AD2F8883023F01D
:103EE0008043E16F0B43C2F88830236813F4803FAE
:103EF00009D0274AD2F8883023F00043D4F8801044
:103F00000B43C2F88830384602B0BDE8F08137462E
:103F1000FBE61F4A936D23F080539365F9E6D3685F
:103F200043F48013D36097E70121201DFFF7A6FC1F
:103F3000002891D007468FE7D36843F48013D360FD
:103F40009EE70121201DFFF799FC002898D0074625
:103F500096E7D36843F48013D360A5E70121201DC1
:103F6000FFF78CFC00289FD007469DE70221201D0B
:103F7000FFF784FC0028ABD00746A9E7022104F133
:103F80002000FFF733FD0028A2D00746A0E700BFBE
:103F900000100240024A136843F0040313607047A4
:103FA0000010024010B4064C616941F001016161EA
:103FB0000260BFF36F8F43605DF8044B704700BF32
:103FC0000020024010B40B4A536943F4802353612C
:103FD000EFF3108472B6402351F8042B40F8042B01
:103FE000013B13F0FF03F7D184F310885DF8044B15
:103FF000704700BF00200240094B5B69002B01DBCA
:1040000000207047064B074A9A6002F188329A6096
:104010005B69002B01DB002070470120704700BF67
:10402000002002402301674538B50446FEF75CFFD7
:104030000546144B1B6913F4803F09D0B4F1FF3FD0
:10404000F7D0FEF751FF401BA042F2D3032016E049
:104050000C4B1B694CF2FA32134009D1094B1B6916
:1040600013F0010F0CD0074B01221A61002006E06B
:1040700005494A681A434A60024A1361012038BD63
:104080000020FCE700200240600000202DE9F04104
:104090001646284A1278012A49D004460D46984609
:1040A000244B01221A704CF25030FFF7BDFF074637
:1040B00008BB204B00225A601F4B1B6813F4806F13
:1040C0001FD01D4A136823F480631360194B02222A
:1040D0001A77D4B1631E012B1ED900244CF2503044
:1040E000FFF7A2FF074624B1134A536923EA0404E9
:1040F000546100F05DF80F4B00221A703846BDE89D
:10410000F0810C4B00221A77E3E7324643462846FB
:10411000FFF748FF0124E1E731462846FFF752FF49
:10412000022C01D00024D9E74FF48024D6E70227DF
:10413000E4E700BF600000200020024010F0010F03
:1041400004D0094A536943F00403536110F0020F8D
:1041500004D0054A536943F400435361024A53694A
:1041600043F48033536170470020024011F0010F87
:1041700016D00E4A536923F4006353610B4B5A69FE
:1041800022F4FF62C00000F4FF60104358615A69D6
:1041900042F002025A615A6942F480325A61704711
:1041A000024A536943F400635361E7E70020024089
:1041B000144B1B7FDBB2012B01D0032B0CD1124A15
:1041C000116841F400611160116821F4006111600F
:1041D000116841F400711160023BDBB2012B03D97D
:1041E000084B00221A777047074B1A6842F4805236
:1041F0001A601A6822F480521A601A6842F48062C7
:104200001A60EDE76000002000200240F8B53C4B4A
:104210001B78012B71D004460E46394B01221A70CF
:104220004CF25030FFF700FF0746002860D1344BB6
:1042300000225A60334B1B6813F4007F33D0314B9C
:104240001A6822F400721A601B6813F4806F26D07B
:104250002C4A136823F480631360294B03221A77D6
:104260002368012B31D04FF0FF333360A568A3687A
:10427000E2681344AB4239D961682846FFF776FFFC
:104280004CF25030FFF7D0FE1E4A536923F4FF630F
:1042900023F002035361074638BB0135E7E7184BAB
:1042A00001221A77DCE7174B1B6813F4806F08D0E4
:1042B000144A136823F480631360114B02221A77A7
:1042C000CEE70F4B00221A77CAE76068FFF736FF88
:1042D0004CF25030FFF7A8FE07460A4A536923F410
:1042E000004323F00403536100E03560FFF760FFF3
:1042F000034B00221A703846F8BD0227FBE700BFC7
:104300006000002000200240F0B583B000233FE0B1
:10431000C66A26EA0406C5F3C0049C403443C4625E
:104320005FE0062400E00024B4403C430235654EC3
:1043300046F82540644C2568D44325EA02064F68B8
:1043400017F4803F01D042EA05065F4D2E606D688C
:1043500004EA05064F6817F4003F01D042EA05065B
:10436000594D6E60AD6804EA05064F6817F4801F6A
:1043700001D042EA0506544DAE60ED682C404E680F
:1043800016F4001F01D042EA05044F4AD4600133FD
:104390000A6832FA03F400F0928001249C40224023
:1043A000F5D04D686E1E012E03D9112D01D0122DAE
:1043B00012D186685F000325BD4026EA0506CD6858
:1043C000BD4035438560466826EA04064D68C5F35E
:1043D00000159D40354345604D6805F00306032EEA
:1043E00096D0C7685E000325B540EC4327EA050771
:1043F0008D68B5403D43C5604D68022D01D0122D3A
:1044000013D1DF08083750F827E003F007054FEA1B
:10441000850C0F2505FA0CF52EEA050E0D6905FA37
:104420000CF545EA0E0540F82750056825404C6814
:1044300004F00304B4402C4304604C6814F0805F23
:10444000A5D0224C256E45F001052566246E04F0AA
:1044500001040194019C9D08AE1C1A4C54F826706E
:1044600003F00304A6000F24B44027EA0407B0F1C8
:10447000904F3FF458AF164CA04216D004F580641C
:10448000A04214D004F58064A04212D004F58064E8
:10449000A04210D004F58064A0420ED004F58064E0
:1044A000A0423FF43EAF07243EE701243CE702244C
:1044B0003AE7032438E7042436E7052434E703B059
:1044C000F0BD00BF000001400004014000100240A8
:1044D000000400480369194201D001207047002000
:1044E00070470AB1816170478162704743690B422E
:1044F00001D08162704781617047000008B5054BAB
:104500005B69034200D108BD024B5861FDF744FBD3
:10451000F9E700BF0004014008B590F82530DBB290
:10452000022B03D00423C363012008BD0268136873
:1045300023F00E0313600268136823F00103136075
:10454000436C03F01C03016C012202FA03F34B607D
:1045500080F82520002380F82430836B13B198471E
:104560000020E2E70020E0E7024B186800F4C0609A
:10457000704700BF00700040074AD36823F4E0632F
:104580001B041B0C000200F4E060034343F0BF6314
:1045900043F40033D360704700ED00E030B4174BB4
:1045A000DB68C3F30223C3F10704042C28BF0424EF
:1045B0001D1D062D18D9033B4FF0FF3505FA04F4F5
:1045C00021EA0401994005FA03F322EA030319439F
:1045D00000280BDB0901C9B200F1604000F5614021
:1045E00080F8001330BC70470023E5E700F00F00AF
:1045F0000901C9B2024B1954F4E700BF00ED00E015
:1046000014ED00E0002807DB00F01F024009012341
:104610009340024A42F82030704700BF00E100E0BA
:104620002DE9F0410646884617461D463468A468C1
:1046300038EA04030CBF01240024BC4237D0B5F192
:10464000FF3FF3D0FEF750FC069BC01AA84201D2F0
:10465000002DEBD13268536823F0E0035360736898
:10466000B3F5827F0BD0B36AB3F5005F14D001239A
:1046700086F85D30002386F85C30032018E0B368CC
:10468000B3F5004F02D0B3F5806FECD132681368F8
:1046900023F040031360E6E73268136823F4005305
:1046A00013603268136843F400531360DFE700209F
:1046B000BDE8F0812DE9F84381460E46174698463D
:1046C00002E0B8F1FF3F0CD1D9F80050AC6834409B
:1046D000BC4243D0B6F5C06FF3D1002FF1D12B7B94
:1046E000EFE7FEF701FC089BC01A404502D2B8F183
:1046F000000FE9D1D9F80020536823F0E00353609C
:10470000D9F80430B3F5827F0CD0D9F82830B3F54E
:10471000005F16D0012389F85D30002389F85C30F2
:1047200003201CE0D9F80830B3F5004F02D0B3F5F0
:10473000806FEAD1D9F80020136823F0400313609A
:10474000E3E7D9F80020136823F400531360D9F885
:104750000020136843F400531360DBE70020BDE83A
:10476000F88370B582B004460D46164600920B469B
:1047700000224FF4C051FFF79DFFB0B900962B46C1
:10478000002280212046FFF74BFFA8B900962B4658
:1047900000224FF4C0612046FFF78CFF50B1236E1A
:1047A00043F020032366032004E0236E43F020033C
:1047B0002366032002B070BD236E43F020032366FE
:1047C0000320F7E770B582B004460D4616464368ED
:1047D000B3F5827F0DD000962B4600228021204623
:1047E000FFF71EFF90B96368B3F5827F14D002B063
:1047F00070BD8368B3F5004F02D0B3F5806FEAD186
:104800002268136823F040031360E4E7236E43F04B
:10481000200323660320EAE7A368B3F5004F02D024
:10482000B3F5806FE3D100962B4600224FF4C061B0
:104830002046FFF73FFF0028D9D0236E43F0200326
:1048400023660320D3E77047002853D010B50446F1
:104850000023836290F85D30002B40D0022384F85F
:104860005D302268136823F040031360E368B3F5FA
:10487000E06F39D90022B3F5706F04D0B3F5E06F63
:1048800001D00021A162216B21B9B3F5E06F2ED9CF
:10489000022323636368A1680B4321690B436169A9
:1048A0000B43A16901F400710B43E1690B43216AD9
:1048B0000B43A06A216803430B60638B03F004037E
:1048C000616A0B43616B0B43E1680B43216813433F
:1048D0004B6000202066012384F85D3010BD80F815
:1048E0005C30FFF7B0FFB9E74FF48052C3E7012314
:1048F0002363CFE701207047704790B110B504469D
:10490000022380F85D300268136823F040031360CF
:10491000FFF7F2FF0020206684F85D0084F85C0059
:1049200010BD012070472DE9F8431F46089D90F8FF
:104930005C30012B00F064810446884691460123D7
:1049400080F85C30FEF7D0FA064694F85D30DBB2B2
:104950006268012B0AD0B2F5827F40F03881A268EC
:10496000002A40F03D81042B40F03C81B8F1000F5B
:1049700000F03A81B9F1000F00F03881002F00F00B
:10498000378194F85D30DBB2042B02D0052384F824
:104990005D3000232366C4F84090A4F84670A4F864
:1049A0004470C4F83880E787A787E3642365E36829
:1049B000B3F5E06F01D8012F23D92268536823F49F
:1049C0008053536023681A6812F0400F03D11A68AD
:1049D00042F040021A60E368B3F5E06F58D96368AB
:1049E0000BB1012F0BD1A26B23681288DA60A36B85
:1049F0000233A363E38F9BB2013B9BB2E3870127A2
:104A000025E02268536843F480535360DAE7236853
:104A10009A6812F0010F11D0B4F8462092B26AB130
:104A2000DA68236C1A80236C02332364B4F84630AE
:104A30009BB2013B9BB2A4F846300127FEF754FA23
:104A4000831BAB4203D3B5F1FF3F40F0D380E38F2C
:104A50009BB22BB9B4F846309BB2002B00F0AD806E
:104A600023689A6812F0020FD1D0E28F92B2002A26
:104A7000CDD0002FCBD0A26B1288DA60A36B0233AB
:104A8000A363E38F9BB2013B9BB2E3870027BEE7A2
:104A900063680BB1012F0FD1E38F9BB2012B0DD9AE
:104AA000A26B23681288DA60A36B0233A363E38FDF
:104AB0009BB2023B9BB2E387012749E0A26B2368CC
:104AC00012781A73A36B0133A363E38F9BB2013B8C
:104AD0009BB2E387F0E7E28F92B2012A0CD9A26B76
:104AE0001288DA60A36B0233A363E38F9BB2023BAD
:104AF0009BB2E38700273DE0A26B12781A73A36B89
:104B00000133A363E38F9BB2013B9BB2E387002792
:104B100030E02268536843F48053536001270DE06E
:104B2000226C1B7B1370236C01332364B4F8463072
:104B30009BB2013B9BB2A4F846300127FEF7D4F9A3
:104B4000801BA84202D3B5F1FF3F55D1002D55D0AF
:104B5000E38F9BB223B9B4F846309BB2002B2CD024
:104B600023689A6812F0020F04D0E28F92B20AB161
:104B7000002FB0D123689A6812F0010FDED0B4F88C
:104B8000462092B2002AD9D0B4F8462092B2012A27
:104B9000C6D9DA68236C1A80236C02332364B4F814
:104BA00046309BB2023B9BB2A4F84630B4F8463084
:104BB0009BB2012BADD90127C0E7324629462046DA
:104BC000FFF7CFFD20B120232366012000E0022063
:104BD000012384F85D30002384F85C30BDE8F8835D
:104BE0000220F5E70220F3E70120F1E70120EFE7DB
:104BF0000120EDE70320EBE70320E9E70320E7E7E7
:104C00000220EBE72DE9F04383B004468846914645
:104C10001D464368B3F5827F43D094F85C30012B86
:104C200000F0BA80012384F85C30FEF75DF9074696
:104C300094F85D60F6B2012E40F09B80B8F1000F51
:104C400000F09880B9F1000F00F09480042384F8FC
:104C50005D3000232366C4F84080A4F84490A4F893
:104C60004690A363A387E387E3642365E368B3F512
:104C7000E06F23D92268536823F480535360A368FC
:104C8000B3F5004F20D023681A6812F0400F03D10B
:104C90001A6842F040021A60E368B3F5E06F23D966
:104CA00044E08368002BB8D1042380F85D30009580
:104CB00013460A46FFF737FE064661E0226853684E
:104CC00043F480535360DAE72268136823F4804387
:104CD0001360D8E7FEF708F9C01BA84202D3B5F16C
:104CE000FF3F51D1002D51D0B4F846309BB2002B7C
:104CF00033D023689A6812F0010FEBD0226C1B7B33
:104D00001370236C01332364B4F846309BB2013B2B
:104D10009BB2A4F84630E7E7FEF7E6F8C01BA842CE
:104D200002D3B5F1FF3F33D1002D33D0B4F8463074
:104D30009BB293B123689A6812F0010FECD0DA6845
:104D4000236C1A80236C02332364B4F8462092B299
:104D5000013A92B2A4F84620E8E73A4629462046AE
:104D6000FFF730FD08B120232366236E13B9002618
:104D700000E00226012384F85D30002384F85C30D3
:104D8000304603B0BDE8F0830326F3E70326F1E7DE
:104D90000326EFE70326EDE70226F1E7034690F846
:104DA0005C00012847D0012083F85C00002937D03F
:104DB000002A37D093F85D00C0B2012837D1032014
:104DC00083F85D000020186699639A87DA87186473
:104DD000A3F84400A3F84600D864DA68B2F5E06F9F
:104DE00015D9164A1A659A68B2F5004F12D019689B
:104DF0004A6842F0A0024A601A68116811F0400F38
:104E000017D1116841F04001116000200BE00C4AFD
:104E10001A65E8E719680A6842F480420A60E6E722
:104E2000012000E00120002283F85C20704702206E
:104E3000F9E70020F7E70220704700BF875000081D
:104E40005F50000830B4044690F85C00012867D039
:104E5000012084F85C0094F85D00C0B26568012808
:104E600007D0B5F5827F49D1A568002D4CD1042823
:104E70004CD100294CD0002A4CD0002B4CD094F8B7
:104E80005D00C0B2042802D0052084F85D00002037
:104E90002066A163A387E3872264A4F84430A4F8C2
:104EA0004630E268B2F5E06F1DD91E49E1641E4943
:104EB0002165B2F5E06F01D8012B19D9226853683A
:104EC00023F4805353602268536843F0E003536037
:104ED00023681A6812F0400F20D11A6842F040028D
:104EE0001A6000200BE01149E16411492165E0E7F7
:104EF0002268536843F480535360E4E702200023A0
:104F000084F85C3030BC70470220F8E70220F6E7F6
:104F10000120F4E70120F2E70120F0E70020EEE7AE
:104F20000220EFE7B95200087F520008055200083E
:104F3000A951000810B5044683681BB94368B3F54E
:104F4000827F3CD094F85C30012B55D0012384F84B
:104F50005C3094F85D00C0B2984246D1002945D03B
:104F6000002A43D0042384F85D30002323662164A3
:104F7000A4F84420A4F84620A363A387E38723650D
:104F8000E368B3F5E06F22D92268536823F48053B5
:104F900053601A4BE364A368B3F5004F1FD0226837
:104FA000536843F06003536023681A6812F0400F9F
:104FB00020D11A6842F040021A60002016E0042353
:104FC00080F85D3013460A46FFF73CFF11E0226887
:104FD000536843F480535360094BE364DBE7226872
:104FE000136823F480431360D9E70220002384F878
:104FF0005C3010BD0020F9E70220FAE71D510008DF
:10500000EF5000087047704710B582B00446FDF7B6
:105010006BFF024621684B6823F0A0034B606421BC
:105020002046FFF79EFB18B1236E43F02003236652
:10503000A36833B901932368DA6801929B680193EE
:10504000019B012384F85D30236E23B12046FFF7D6
:10505000DAFF02B010BD204602F014FAF9E708B5F5
:10506000826B036812781A73836B01338363C38F77
:105070009BB2013B9BB2C387C38F9BB203B108BDF8
:10508000FFF7C2FFFBE708B5826B03681288DA609E
:10509000836B02338363C38F9BB2013B9BB2C38795
:1050A000C38F9BB203B108BDFFF7AEFFFBE710B59E
:1050B00004460268536823F060035360FDF714FF51
:1050C000024664212046FFF77DFB18B1236E43F0B2
:1050D00020032366012384F85D30236E1BB920462C
:1050E00002F0C6F910BD2046FFF78DFFFAE708B5BC
:1050F0000268036C127B1A70036C01330364B0F80E
:1051000046309BB2013B9BB2A0F84630B0F8463027
:105110009BB203B108BDFFF7CAFFFBE708B5036800
:10512000DA68036C1A80036C02330364B0F846300B
:105130009BB2013B9BB2A0F84630B0F846309BB220
:1051400003B108BDFFF7B3FFFBE710B50446FDF759
:10515000CBFE024621684B6823F020034B6064219C
:105160002046FFF7FEFA18B1236E43F020032366B2
:10517000236E93B994F85D30DBB2042B06D0012383
:1051800084F85D302046FFF73DFF10BD012384F811
:105190005D30204602F06CF9F7E7012384F85D30BA
:1051A0002046FFF730FFF0E708B5C38F9BB2012B15
:1051B00018D9826B03681288DA60836B02338363C9
:1051C000C38F9BB2023B9BB2C387C38F9BB243B9D1
:1051D0000268536823F080035360B0F846309BB2F6
:1051E0006BB108BD826B036812781A73836B01334D
:1051F0008363C38F9BB2013B9BB2C387E5E7FFF795
:10520000A4FFEEE708B5B0F846309BB2012B18D9E1
:105210000368DA68036C1A80036C02330364B0F825
:1052200046309BB2023B9BB2A0F84630B0F8463005
:105230009BB2012B13D10268536843F4805353602F
:105240000DE00268036C127B1A70036C0133036477
:10525000B0F846309BB2013B9BB2A0F84630B0F8A4
:1052600046309BB23BB90268536823F06003536039
:10527000C38F9BB203B108BDFFF767FFFBE708B51B
:10528000826B03681288DA60836B02338363C38F97
:105290009BB2013B9BB2C387C38F9BB243B90268E9
:1052A000536823F080035360B0F846309BB203B1DB
:1052B00008BDFFF74AFFFBE708B50368DA68036C2F
:1052C0001A80036C02330364B0F846309BB2013B92
:1052D0009BB2A0F84630B0F846309BB23BB90268AA
:1052E000536823F040035360C38F9BB203B108BDE2
:1052F000FFF72BFFFBE7000030B585B004460268DE
:1053000051689368C3F3801013F0400F05D113F078
:10531000010F02D011F0400F69D113F0020F02D03B
:1053200011F0800F67D1C3F3401513F0200F03D1A4
:1053300010B913F4807F61D011F0200F5ED078B1E6
:1053400094F85D00C0B203285AD0206E40F00400EB
:10535000206600200090D06800909068009000982F
:1053600065B1206E40F00100206600200290906838
:105370000290106820F040001060029A13F4807FC1
:1053800009D0236E43F008032366002303932368A8
:105390009B680393039B236E002B2FD022685368D6
:1053A00023F0E0035360012384F85D3011F0030F14
:1053B0002ED02268536823F003035360A36D4BB1D2
:1053C000154A9A63A06DFFF7A7F818B1236E43F052
:1053D00040032366636D8BB10F4A9A63606DFFF7DC
:1053E0009BF858B1236E43F04003236606E0E36C5C
:1053F0002046984702E0236D2046984705B030BD0F
:1054000000230193D368019393680193019BF5E70F
:105410002046FFF7F8FDF1E71D54000808B5806A43
:105420000023A0F84630C387FFF7EDFD08BD00005C
:1054300030B583B000230193002800F0E8800446D3
:10544000436D03B323689A6812F0005F05D09A6831
:1054500022F0204222F03F029A602268936813F003
:10546000805F1DD1936823F0104323F03F0343F086
:1054700080539360674B1B689B09674AA2FB032319
:105480009B09019309E0FBF7ABFC0023A36584F8BB
:105490005030D7E7019B013B0193019B002BF9D1D1
:1054A0002268936813F0805F09D1636D43F01003A5
:1054B0006365A36D43F00103A365012000E00020B4
:1054C000936813F0040300D00123616D11F0100FF5
:1054D00040F09680002B40F09380636D23F481733D
:1054E00043F002036365936813F0010F1BD14B4B2C
:1054F0009A6812F0010200D00122494B9B6813F018
:10550000010300D001231343464A926812F00102BE
:1055100000D00122134306D1636843498A6822F40C
:105520007C1213438B60627E636B43EA4233E26812
:105530001343A268134394F8202043EA0243012A4C
:105540003ED0A26A22B102F47072E16A0A431343A8
:105550002168CD68354A2A401343CB6021688B68A7
:1055600013F0040300D001238A6812F0080200D06F
:105570000122B3B9AAB9227E94F830305B0043EA25
:105580008232CB6823F4804323F002031343CB60C1
:1055900094F83830012B18D02268136923F00103E6
:1055A00013612369012B22D02268136B23F00F03B0
:1055B0001363636D23F0030343F00103636524E089
:1055C000626A013A43EA4243BBE721680B6923F46C
:1055D000FF6323F00403E26B256C2A43656C2A43C6
:1055E000A56C2A43134343F001030B61D9E72168FB
:1055F0000B6B23F00F03E269013A13430B63D8E707
:10560000636D43F010036365012003B030BD0120DA
:10561000FBE700BF94000020632D3E05000004500E
:1056200000010450000204500003045007C0F0FFC2
:105630002DE9F04104460D463D4B9F6807F01F07DA
:105640004669082E11D057B1052F08D0092F06D072
:10565000374B9B6813F4604F28D1042605E023687C
:10566000DB6813F0010F1BD10426FDF73DFC8046DB
:1056700023681A6832421FD1B5F1FF3FF8D0FDF719
:1056800033FCA0EB0800A84201D8002DF0D1636DD7
:1056900043F004036365002384F85030032042E0A4
:1056A000636D43F02003636501203CE0436D43F0EC
:1056B00020034365012036E0626D42F400726265AA
:1056C000DA6812F4406F11D1627E7AB91A6812F06A
:1056D000080F0BD0626D22F480726265626D12F465
:1056E000805F03D1626D42F001026265114A93420C
:1056F00009D01A46934209D047B1052F06D0092F89
:1057000004D0D26803E0A2F58072F3E7DA68082ECD
:1057100006D012F4804F08D10C221A60002002E05B
:1057200008221A600020BDE8F0810020FBE700BFDE
:1057300000030450000104500368186C7047000017
:10574000F0B482B00022019290F85020012A00F0BB
:1057500014820346012280F850200268926812F0F9
:10576000040F0AD0426D42F020024265012000225F
:1057700083F8502002B0F0BC70474A68052A09D867
:10578000023A032A00F28D80DFE802F0028184876A
:105790000C224A601E684D680C6830362A0A920056
:1057A00002F00C02B05805F01F051F27AF4020EA99
:1057B0000700C4F38464AC402043B0501C68A26866
:1057C00012F0040200D00122A06810F0080000D0FE
:1057D000012052BB48BB0E688D681434720E9200D3
:1057E00002F00402A058C6F304560727B74020EA87
:1057F0000700B5402843A0504C691868C268C2F33E
:10580000C102520004FA02F20D69042D4CD00E6858
:10581000603050F82570B64C3C4006F0F8463243F4
:10582000144344F0004440F825401868826812F0A0
:10583000010F15D10A68CD68D0F8B040C2F3120646
:1058400024EA060405F01806AA4DF5402A40C2F3E2
:1058500012022243C0F8B020C868A74A90427ED006
:105860000A68A6490A4200F08481A549896801F0C6
:10587000E074A448824200F01081A348824200F004
:105880004D81A248824200F0618100206FE7122220
:105890004A607FE718224A607CE74FF480724A60D2
:1058A00078E706224A6075E7026E046EC4F38464EA
:1058B0000A68C2F312057DBBC2F38462944230D001
:1058C0001C68626E606EC0F384600A68C2F31205E1
:1058D00065BBC2F3846290422DD01C68A26EA06E9C
:1058E000C0F384600A68C2F312054DBBC2F3846240
:1058F00090422AD01C68E26EE06EC0F384600A68B1
:10590000C2F3120535BBC2F3846290428DD1E26EC0
:1059100022F00042E26688E792FAA2F2B2FA82F23C
:10592000CCE7026E22F000420266C9E792FAA2F2C8
:10593000B2FA82F2CFE7626E22F000426266CCE7F2
:1059400092FAA2F2B2FA82F2D2E7A26E22F00042FA
:10595000A266CFE792FAA2F2B2FA82F2D5E71D6808
:105960000A68C2F3120696BB900E013000F01F00C9
:1059700009288CBF00200120002852D09EBB940E25
:105980000134A40604F0F844B6BB900E013000F0D8
:105990001F070120B8400443C6BB920E013202F03B
:1059A0001F0202EB4202120522438C681435500E8E
:1059B000800000F004002E58C2F3045207279740DD
:1059C00026EA070604FA02F232432A5048E792FA1E
:1059D000A2F0B0FA80F0013000F01F0009288CBF5F
:1059E00000200120C8E792FAA2F4B4FA84F401344A
:1059F000A40604F0F844C7E792FAA2F0B0FA80F0E7
:105A0000013000F01F070120B840C4E792FAA2F26B
:105A1000B2FA82F2013202F01F0202EB42021205D8
:105A2000C2E7CEB9940E0134A40604F0F844E6B9F6
:105A3000900E013000F01F070120B8400443F6B972
:105A4000900E013000F01F0000EB40021E3A1205DC
:105A500042F000722243A8E792FAA2F4B4FA84F466
:105A60000134A40604F0F844E1E792FAA2F0B0FA97
:105A700080F0013000F01F070120B840DEE792FA05
:105A8000A2F0B0FA80F0013000F01F0000EB4002FD
:105A90001E3A120542F00072DCE711F4000F7FF4A9
:105AA000ECAE1A681A498A4205D001F500718A42A3
:105AB00001D000205BE644F4000411498A6822F01A
:105AC000E07214438C60134A126892091249A1FBD8
:105AD0000212920902EB42029200019202E0019A44
